{"abi":[{"type":"constructor","inputs":[],"stateMutability":"nonpayable"},{"type":"receive","stateMutability":"payable"},{"type":"function","name":"addQuiz","inputs":[{"name":"q","type":"tuple","internalType":"struct Quiz.Quiz_item","components":[{"name":"id","type":"uint256","internalType":"uint256"},{"name":"question","type":"string","internalType":"string"},{"name":"answer","type":"string","internalType":"string"},{"name":"min_bet","type":"uint256","internalType":"uint256"},{"name":"max_bet","type":"uint256","internalType":"uint256"}]}],"outputs":[],"stateMutability":"nonpayable"},{"type":"function","name":"balances","inputs":[{"name":"","type":"address","internalType":"address"}],"outputs":[{"name":"","type":"uint256","internalType":"uint256"}],"stateMutability":"view"},{"type":"function","name":"betToPlay","inputs":[{"name":"quizId","type":"uint256","internalType":"uint256"}],"outputs":[],"stateMutability":"payable"},{"type":"function","name":"bets","inputs":[{"name":"","type":"uint256","internalType":"uint256"},{"name":"","type":"address","internalType":"address"}],"outputs":[{"name":"","type":"uint256","internalType":"uint256"}],"stateMutability":"view"},{"type":"function","name":"claim","inputs":[],"outputs":[],"stateMutability":"nonpayable"},{"type":"function","name":"getAnswer","inputs":[{"name":"quizId","type":"uint256","internalType":"uint256"}],"outputs":[{"name":"","type":"string","internalType":"string"}],"stateMutability":"view"},{"type":"function","name":"getQuiz","inputs":[{"name":"quizId","type":"uint256","internalType":"uint256"}],"outputs":[{"name":"","type":"tuple","internalType":"struct Quiz.Quiz_item","components":[{"name":"id","type":"uint256","internalType":"uint256"},{"name":"question","type":"string","internalType":"string"},{"name":"answer","type":"string","internalType":"string"},{"name":"min_bet","type":"uint256","internalType":"uint256"},{"name":"max_bet","type":"uint256","internalType":"uint256"}]}],"stateMutability":"view"},{"type":"function","name":"getQuizNum","inputs":[],"outputs":[{"name":"","type":"uint256","internalType":"uint256"}],"stateMutability":"view"},{"type":"function","name":"owner","inputs":[],"outputs":[{"name":"","type":"address","internalType":"address"}],"stateMutability":"view"},{"type":"function","name":"quizCount","inputs":[],"outputs":[{"name":"","type":"uint256","internalType":"uint256"}],"stateMutability":"view"},{"type":"function","name":"quizzes","inputs":[{"name":"","type":"uint256","internalType":"uint256"}],"outputs":[{"name":"id","type":"uint256","internalType":"uint256"},{"name":"question","type":"string","internalType":"string"},{"name":"answer","type":"string","internalType":"string"},{"name":"min_bet","type":"uint256","internalType":"uint256"},{"name":"max_bet","type":"uint256","internalType":"uint256"}],"stateMutability":"view"},{"type":"function","name":"solveQuiz","inputs":[{"name":"quizId","type":"uint256","internalType":"uint256"},{"name":"ans","type":"string","internalType":"string"}],"outputs":[{"name":"","type":"bool","internalType":"bool"}],"stateMutability":"nonpayable"},{"type":"function","name":"vault_balance","inputs":[],"outputs":[{"name":"","type":"uint256","internalType":"uint256"}],"stateMutability":"view"}],"bytecode":{"object":"0x60806040525f600355348015610013575f5ffd5b505f80546001600160a01b031916331781556040805160a08101825260606020808301828152838501838152928401868152608085019687526001808652865180880188526005815264312b313d3f60d81b818601529092528551808701909652908552601960f91b91850191909152929052670de0b6b3a7640000909152671bc16d674ec800009091526100a7816100ad565b506102ea565b5f546001600160a01b031633146100fb5760405162461bcd60e51b815260206004820152600e60248201526d139bdd08185d5d1a1bdc9a5e995960921b604482015260640160405180910390fd5b60038054905f61010a83610174565b90915550506003545f9081526002602090815260409091208251815590820151829190600182019061013c9082610230565b50604082015160028201906101519082610230565b5060608201516003820155608090910151600491820155805460010181555f5250565b5f6001820161019157634e487b7160e01b5f52601160045260245ffd5b5060010190565b634e487b7160e01b5f52604160045260245ffd5b600181811c908216806101c057607f821691505b6020821081036101de57634e487b7160e01b5f52602260045260245ffd5b50919050565b601f82111561022b57805f5260205f20601f840160051c810160208510156102095750805b601f840160051c820191505b81811015610228575f8155600101610215565b50505b505050565b81516001600160401b0381111561024957610249610198565b61025d8161025784546101ac565b846101e4565b6020601f82116001811461028f575f83156102785750848201515b5f19600385901b1c1916600184901b178455610228565b5f84815260208120601f198516915b828110156102be578785015182556020948501946001909201910161029e565b50848210156102db57868401515f19600387901b60f8161c191681555b50505050600190811b01905550565b6111d8806102f75f395ff3fe6080604052600436106100c2575f3560e01c80638da5cb5b1161007c578063b5ab58dc11610057578063b5ab58dc1461021f578063c0da916f1461024b578063f101b3f11461025f578063f644b3bb1461027e575f5ffd5b80638da5cb5b146101a85780638f7b0961146101de578063a3f7e096146101f3575f5ffd5b806327e235e3146100cd5780632e8497cf1461010b5780634e71d92d1461012057806354c63f82146101365780637487361f1461014957806388409afa14610178575f5ffd5b366100c957005b5f5ffd5b3480156100d8575f5ffd5b506100f86100e7366004610ce0565b60016020525f908152604090205481565b6040519081526020015b60405180910390f35b348015610116575f5ffd5b506100f860035481565b34801561012b575f5ffd5b5061013461029d565b005b610134610144366004610d00565b610341565b348015610154575f5ffd5b50610168610163366004610ddf565b61057d565b6040519015158152602001610102565b348015610183575f5ffd5b50610197610192366004610d00565b610857565b604051610102959493929190610e51565b3480156101b3575f5ffd5b505f546101c6906001600160a01b031681565b6040516001600160a01b039091168152602001610102565b3480156101e9575f5ffd5b506100f860055481565b3480156101fe575f5ffd5b5061021261020d366004610d00565b610991565b6040516101029190610e90565b34801561022a575f5ffd5b5061023e610239366004610d00565b610b33565b6040516101029190610ef3565b348015610256575f5ffd5b506003546100f8565b34801561026a575f5ffd5b50610134610279366004610f05565b610bd7565b348015610289575f5ffd5b506100f8610298366004610fbc565b610c9a565b335f81815260016020526040808220805490839055905190929083908381818185875af1925050503d805f81146102ef576040519150601f19603f3d011682016040523d82523d5f602084013e6102f4565b606091505b505090508061033d5760405162461bcd60e51b815260206004820152601060248201526f2a3930b739b332b9103330b4b632b21760811b60448201526064015b60405180910390fd5b5050565b5f60025f8381526020019081526020015f206040518060a00160405290815f820154815260200160018201805461037790610fe6565b80601f01602080910402602001604051908101604052809291908181526020018280546103a390610fe6565b80156103ee5780601f106103c5576101008083540402835291602001916103ee565b820191905f5260205f20905b8154815290600101906020018083116103d157829003601f168201915b5050505050815260200160028201805461040790610fe6565b80601f016020809104026020016040519081016040528092919081815260200182805461043390610fe6565b801561047e5780601f106104555761010080835404028352916020019161047e565b820191905f5260205f20905b81548152906001019060200180831161046157829003601f168201915b505050505081526020016003820154815260200160048201548152505090505f3460046001856104ae9190611032565b815481106104be576104be611045565b5f9182526020808320338452909101905260409020546104de9190611059565b9050816060015181101580156104f8575081608001518111155b6105445760405162461bcd60e51b815260206004820152601e60248201527f42657420616d6f756e74206973206e6f7420696e207468652072616e676500006044820152606401610334565b806004610552600186611032565b8154811061056257610562611045565b5f918252602080832033845290910190526040902055505050565b5f828152600260209081526040808320815160a08101909252805482526001810180548594840191906105af90610fe6565b80601f01602080910402602001604051908101604052809291908181526020018280546105db90610fe6565b80156106265780601f106105fd57610100808354040283529160200191610626565b820191905f5260205f20905b81548152906001019060200180831161060957829003601f168201915b5050505050815260200160028201805461063f90610fe6565b80601f016020809104026020016040519081016040528092919081815260200182805461066b90610fe6565b80156106b65780601f1061068d576101008083540402835291602001916106b6565b820191905f5260205f20905b81548152906001019060200180831161069957829003601f168201915b505050505081526020016003820154815260200160048201548152505090505f81604001516040516020016106eb9190610ef3565b60405160208183030381529060405280519060200120846040516020016107129190610ef3565b6040516020818303038152906040528051906020012014905080156107cc57600461073e600187611032565b8154811061074e5761074e611045565b5f91825260208083203384529091019052604090205461076f90600261106c565b335f908152600160205260408120805490919061078d908490611059565b909155505f905060046107a1600188611032565b815481106107b1576107b1611045565b5f91825260208083203384529091019052604090205561084d565b60046107d9600187611032565b815481106107e9576107e9611045565b5f9182526020808320338452909101905260408120546005805491929091610812908490611059565b909155505f90506004610826600188611032565b8154811061083657610836611045565b5f9182526020808320338452909101905260409020555b9150505b92915050565b60026020525f90815260409020805460018201805491929161087890610fe6565b80601f01602080910402602001604051908101604052809291908181526020018280546108a490610fe6565b80156108ef5780601f106108c6576101008083540402835291602001916108ef565b820191905f5260205f20905b8154815290600101906020018083116108d257829003601f168201915b50505050509080600201805461090490610fe6565b80601f016020809104026020016040519081016040528092919081815260200182805461093090610fe6565b801561097b5780601f106109525761010080835404028352916020019161097b565b820191905f5260205f20905b81548152906001019060200180831161095e57829003601f168201915b5050505050908060030154908060040154905085565b6109c06040518060a001604052805f815260200160608152602001606081526020015f81526020015f81525090565b5f60025f8481526020019081526020015f206040518060a00160405290815f82015481526020016001820180546109f690610fe6565b80601f0160208091040260200160405190810160405280929190818152602001828054610a2290610fe6565b8015610a6d5780601f10610a4457610100808354040283529160200191610a6d565b820191905f5260205f20905b815481529060010190602001808311610a5057829003601f168201915b50505050508152602001600282018054610a8690610fe6565b80601f0160208091040260200160405190810160405280929190818152602001828054610ab290610fe6565b8015610afd5780601f10610ad457610100808354040283529160200191610afd565b820191905f5260205f20905b815481529060010190602001808311610ae057829003601f168201915b50505091835250506003820154602080830191909152600490920154604091820152805191820181525f82528201529392505050565b606060025f8381526020019081526020015f206002018054610b5490610fe6565b80601f0160208091040260200160405190810160405280929190818152602001828054610b8090610fe6565b8015610bcb5780601f10610ba257610100808354040283529160200191610bcb565b820191905f5260205f20905b815481529060010190602001808311610bae57829003601f168201915b50505050509050919050565b5f546001600160a01b03163314610c215760405162461bcd60e51b815260206004820152600e60248201526d139bdd08185d5d1a1bdc9a5e995960921b6044820152606401610334565b60038054905f610c3083611083565b90915550506003545f90815260026020908152604090912082518155908201518291906001820190610c6290826110e7565b5060408201516002820190610c7790826110e7565b5060608201516003820155608090910151600491820155805460010181555f5250565b60048281548110610ca9575f80fd5b905f5260205f2001602052805f5260405f205f91509150505481565b80356001600160a01b0381168114610cdb575f5ffd5b919050565b5f60208284031215610cf0575f5ffd5b610cf982610cc5565b9392505050565b5f60208284031215610d10575f5ffd5b5035919050565b634e487b7160e01b5f52604160045260245ffd5b60405160a0810167ffffffffffffffff81118282101715610d4e57610d4e610d17565b60405290565b5f82601f830112610d63575f5ffd5b813567ffffffffffffffff811115610d7d57610d7d610d17565b604051601f8201601f19908116603f0116810167ffffffffffffffff81118282101715610dac57610dac610d17565b604052818152838201602001851015610dc3575f5ffd5b816020850160208301375f918101602001919091529392505050565b5f5f60408385031215610df0575f5ffd5b82359150602083013567ffffffffffffffff811115610e0d575f5ffd5b610e1985828601610d54565b9150509250929050565b5f81518084528060208401602086015e5f602082860101526020601f19601f83011685010191505092915050565b85815260a060208201525f610e6960a0830187610e23565b8281036040840152610e7b8187610e23565b60608401959095525050608001529392505050565b60208152815160208201525f602083015160a06040840152610eb560c0840182610e23565b90506040840151601f19848303016060850152610ed28282610e23565b91505060608401516080840152608084015160a08401528091505092915050565b602081525f610cf96020830184610e23565b5f60208284031215610f15575f5ffd5b813567ffffffffffffffff811115610f2b575f5ffd5b820160a08185031215610f3c575f5ffd5b610f44610d2b565b81358152602082013567ffffffffffffffff811115610f61575f5ffd5b610f6d86828501610d54565b602083015250604082013567ffffffffffffffff811115610f8c575f5ffd5b610f9886828501610d54565b60408301525060608281013590820152608091820135918101919091529392505050565b5f5f60408385031215610fcd575f5ffd5b82359150610fdd60208401610cc5565b90509250929050565b600181811c90821680610ffa57607f821691505b60208210810361101857634e487b7160e01b5f52602260045260245ffd5b50919050565b634e487b7160e01b5f52601160045260245ffd5b818103818111156108515761085161101e565b634e487b7160e01b5f52603260045260245ffd5b808201808211156108515761085161101e565b80820281158282048414176108515761085161101e565b5f600182016110945761109461101e565b5060010190565b601f8211156110e257805f5260205f20601f840160051c810160208510156110c05750805b601f840160051c820191505b818110156110df575f81556001016110cc565b50505b505050565b815167ffffffffffffffff81111561110157611101610d17565b6111158161110f8454610fe6565b8461109b565b6020601f821160018114611147575f83156111305750848201515b5f19600385901b1c1916600184901b1784556110df565b5f84815260208120601f198516915b828110156111765787850151825560209485019460019092019101611156565b508482101561119357868401515f19600387901b60f8161c191681555b50505050600190811b0190555056fea2646970667358221220175aa91093588c4ed54156b65360c1e211ed6bd804f1cfc8be0f696b4743a90864736f6c634300081c0033","linkReferences":{}},"methodIdentifiers":{"addQuiz((uint256,string,string,uint256,uint256))":"f101b3f1","balances(address)":"27e235e3","betToPlay(uint256)":"54c63f82","bets(uint256,address)":"f644b3bb","claim()":"4e71d92d","getAnswer(uint256)":"b5ab58dc","getQuiz(uint256)":"a3f7e096","getQuizNum()":"c0da916f","owner()":"8da5cb5b","quizCount()":"2e8497cf","quizzes(uint256)":"88409afa","solveQuiz(uint256,string)":"7487361f","vault_balance()":"8f7b0961"},"id":18}